{
  "contractName": "AcademicCredential",
  "abi": [
    {
      "anonymous": false,
      "inputs": [
        {
          "indexed": true,
          "internalType": "address",
          "name": "degree",
          "type": "address"
        }
      ],
      "name": "DegreeAdded",
      "type": "event"
    },
    {
      "anonymous": false,
      "inputs": [
        {
          "indexed": true,
          "internalType": "address",
          "name": "person",
          "type": "address"
        }
      ],
      "name": "PersonAdded",
      "type": "event"
    },
    {
      "anonymous": false,
      "inputs": [
        {
          "indexed": true,
          "internalType": "address",
          "name": "university",
          "type": "address"
        }
      ],
      "name": "UniversityAdded",
      "type": "event"
    },
    {
      "inputs": [
        {
          "internalType": "address",
          "name": "",
          "type": "address"
        }
      ],
      "name": "isDegree",
      "outputs": [
        {
          "internalType": "bool",
          "name": "",
          "type": "bool"
        }
      ],
      "stateMutability": "view",
      "type": "function"
    },
    {
      "inputs": [
        {
          "internalType": "address",
          "name": "",
          "type": "address"
        }
      ],
      "name": "isPerson",
      "outputs": [
        {
          "internalType": "bool",
          "name": "",
          "type": "bool"
        }
      ],
      "stateMutability": "view",
      "type": "function"
    },
    {
      "inputs": [
        {
          "internalType": "address",
          "name": "",
          "type": "address"
        }
      ],
      "name": "isUniversity",
      "outputs": [
        {
          "internalType": "bool",
          "name": "",
          "type": "bool"
        }
      ],
      "stateMutability": "view",
      "type": "function"
    },
    {
      "inputs": [
        {
          "internalType": "address",
          "name": "_university",
          "type": "address"
        }
      ],
      "name": "addUniversity",
      "outputs": [],
      "stateMutability": "nonpayable",
      "type": "function"
    },
    {
      "inputs": [
        {
          "internalType": "address",
          "name": "_person",
          "type": "address"
        }
      ],
      "name": "addPerson",
      "outputs": [],
      "stateMutability": "nonpayable",
      "type": "function"
    },
    {
      "inputs": [
        {
          "internalType": "address",
          "name": "_degree",
          "type": "address"
        }
      ],
      "name": "addDegree",
      "outputs": [],
      "stateMutability": "nonpayable",
      "type": "function"
    }
  ],
  "bytecode": "0x608060405234801561000f575f80fd5b506107448061001d5f395ff3fe608060405234801561000f575f80fd5b5060043610610060575f3560e01c80630f73927a1461006457806339bdf2a1146100945780638e7ce0f0146100b0578063a1b00dd5146100cc578063b9730cde146100fc578063bc672a381461012c575b5f80fd5b61007e60048036038101906100799190610568565b610148565b60405161008b91906105ad565b60405180910390f35b6100ae60048036038101906100a99190610568565b610165565b005b6100ca60048036038101906100c59190610568565b610288565b005b6100e660048036038101906100e19190610568565b6103ad565b6040516100f391906105ad565b60405180910390f35b61011660048036038101906101119190610568565b6103ca565b60405161012391906105ad565b60405180910390f35b61014660048036038101906101419190610568565b6103e6565b005b6001602052805f5260405f205f915054906101000a900460ff1681565b5f808273ffffffffffffffffffffffffffffffffffffffff1673ffffffffffffffffffffffffffffffffffffffff1681526020019081526020015f205f9054906101000a900460ff16156101ee576040517f08c379a00000000000000000000000000000000000000000000000000000000081526004016101e590610620565b60405180910390fd5b60015f808373ffffffffffffffffffffffffffffffffffffffff1673ffffffffffffffffffffffffffffffffffffffff1681526020019081526020015f205f6101000a81548160ff0219169083151502179055508073ffffffffffffffffffffffffffffffffffffffff167f1bd776fe56dabdcdce7a058540a81f2015efbfd2b70a9a062754353200dc171f60405160405180910390a250565b60025f8273ffffffffffffffffffffffffffffffffffffffff1673ffffffffffffffffffffffffffffffffffffffff1681526020019081526020015f205f9054906101000a900460ff1615610312576040517f08c379a000000000000000000000000000000000000000000000000000000000815260040161030990610688565b60405180910390fd5b600160025f8373ffffffffffffffffffffffffffffffffffffffff1673ffffffffffffffffffffffffffffffffffffffff1681526020019081526020015f205f6101000a81548160ff0219169083151502179055508073ffffffffffffffffffffffffffffffffffffffff167f16bbef95583a79bb31f8641bb7ed4c5d1e45a083f184f338b0cbf5a3be9a497760405160405180910390a250565b6002602052805f5260405f205f915054906101000a900460ff1681565b5f602052805f5260405f205f915054906101000a900460ff1681565b60015f8273ffffffffffffffffffffffffffffffffffffffff1673ffffffffffffffffffffffffffffffffffffffff1681526020019081526020015f205f9054906101000a900460ff1615610470576040517f08c379a0000000000000000000000000000000000000000000000000000000008152600401610467906106f0565b60405180910390fd5b6001805f8373ffffffffffffffffffffffffffffffffffffffff1673ffffffffffffffffffffffffffffffffffffffff1681526020019081526020015f205f6101000a81548160ff0219169083151502179055508073ffffffffffffffffffffffffffffffffffffffff167f92acb04717cd53af51632ef170cd4cb6de847c4e202496a71fbc6d7f2246297560405160405180910390a250565b5f80fd5b5f73ffffffffffffffffffffffffffffffffffffffff82169050919050565b5f6105378261050e565b9050919050565b6105478161052d565b8114610551575f80fd5b50565b5f813590506105628161053e565b92915050565b5f6020828403121561057d5761057c61050a565b5b5f61058a84828501610554565b91505092915050565b5f8115159050919050565b6105a781610593565b82525050565b5f6020820190506105c05f83018461059e565b92915050565b5f82825260208201905092915050565b7f556e697665727369747920616c726561647920726567697374657265640000005f82015250565b5f61060a601d836105c6565b9150610615826105d6565b602082019050919050565b5f6020820190508181035f830152610637816105fe565b9050919050565b7f44656772656520616c72656164792072656769737465726564000000000000005f82015250565b5f6106726019836105c6565b915061067d8261063e565b602082019050919050565b5f6020820190508181035f83015261069f81610666565b9050919050565b7f506572736f6e20616c72656164792072656769737465726564000000000000005f82015250565b5f6106da6019836105c6565b91506106e5826106a6565b602082019050919050565b5f6020820190508181035f830152610707816106ce565b905091905056fea26469706673582212203069d8a8df663d762405198604793f999114ec861032a680a7103b76e563f54264736f6c63430008150033",
  "immutableReferences": {},
  "source": "// SPDX-License-Identifier: MIT\r\npragma solidity ^0.8.0;\r\n\r\ncontract AcademicCredential {\r\n    mapping(address => bool) public isUniversity;\r\n    mapping(address => bool) public isPerson;\r\n    mapping(address => bool) public isDegree;\r\n\r\n    event UniversityAdded(address indexed university);\r\n    event PersonAdded(address indexed person);\r\n    event DegreeAdded(address indexed degree);\r\n\r\n    function addUniversity(address _university) external {\r\n        require(!isUniversity[_university], \"University already registered\");\r\n        isUniversity[_university] = true;\r\n        emit UniversityAdded(_university);\r\n    }\r\n\r\n    function addPerson(address _person) external {\r\n        require(!isPerson[_person], \"Person already registered\");\r\n        isPerson[_person] = true;\r\n        emit PersonAdded(_person);\r\n    }\r\n\r\n    function addDegree(address _degree) external {\r\n        require(!isDegree[_degree], \"Degree already registered\");\r\n        isDegree[_degree] = true;\r\n        emit DegreeAdded(_degree);\r\n    }\r\n}\r\n",
  "sourcePath": "C:\\Users\\Dragos\\Facultate_no-Onedrive\\UniGit\\UBB-CS\\Year3\\Sem2\\Blockchain Smart Contracts\\Project\\contracts\\AcademicCredential.sol",
  "compiler": {
    "name": "solc",
    "version": "0.8.21+commit.d9974bed.Emscripten.clang"
  },
  "schemaVersion": "3.4.16",
  "updatedAt": "2024-05-17T07:30:00.401Z",
  "devdoc": {
    "kind": "dev",
    "methods": {},
    "version": 1
  },
  "userdoc": {
    "kind": "user",
    "methods": {},
    "version": 1
  }
}