{
  "contractName": "Degree",
  "abi": [
    {
      "inputs": [
        {
          "internalType": "string",
          "name": "_degreeName",
          "type": "string"
        },
        {
          "internalType": "uint256",
          "name": "_dateOfIssuance",
          "type": "uint256"
        }
      ],
      "stateMutability": "nonpayable",
      "type": "constructor"
    },
    {
      "inputs": [],
      "name": "dateOfIssuance",
      "outputs": [
        {
          "internalType": "uint256",
          "name": "",
          "type": "uint256"
        }
      ],
      "stateMutability": "view",
      "type": "function"
    },
    {
      "inputs": [],
      "name": "degreeName",
      "outputs": [
        {
          "internalType": "string",
          "name": "",
          "type": "string"
        }
      ],
      "stateMutability": "view",
      "type": "function"
    },
    {
      "inputs": [],
      "name": "owner",
      "outputs": [
        {
          "internalType": "address",
          "name": "",
          "type": "address"
        }
      ],
      "stateMutability": "view",
      "type": "function"
    },
    {
      "inputs": [],
      "name": "status",
      "outputs": [
        {
          "internalType": "enum Degree.CredentialStatus",
          "name": "",
          "type": "uint8"
        }
      ],
      "stateMutability": "view",
      "type": "function"
    }
  ],
  "bytecode": "0x608060405234801562000010575f80fd5b5060405162000a0f38038062000a0f83398181016040528101906200003691906200027f565b335f806101000a81548173ffffffffffffffffffffffffffffffffffffffff021916908373ffffffffffffffffffffffffffffffffffffffff160217905550816001908162000086919062000511565b50806002819055505f60035f6101000a81548160ff02191690836002811115620000b557620000b4620005f5565b5b0217905550505062000622565b5f604051905090565b5f80fd5b5f80fd5b5f80fd5b5f80fd5b5f601f19601f8301169050919050565b7f4e487b71000000000000000000000000000000000000000000000000000000005f52604160045260245ffd5b6200012382620000db565b810181811067ffffffffffffffff82111715620001455762000144620000eb565b5b80604052505050565b5f62000159620000c2565b905062000167828262000118565b919050565b5f67ffffffffffffffff821115620001895762000188620000eb565b5b6200019482620000db565b9050602081019050919050565b5f5b83811015620001c0578082015181840152602081019050620001a3565b5f8484015250505050565b5f620001e1620001db846200016c565b6200014e565b9050828152602081018484840111156200020057620001ff620000d7565b5b6200020d848285620001a1565b509392505050565b5f82601f8301126200022c576200022b620000d3565b5b81516200023e848260208601620001cb565b91505092915050565b5f819050919050565b6200025b8162000247565b811462000266575f80fd5b50565b5f81519050620002798162000250565b92915050565b5f8060408385031215620002985762000297620000cb565b5b5f83015167ffffffffffffffff811115620002b857620002b7620000cf565b5b620002c68582860162000215565b9250506020620002d98582860162000269565b9150509250929050565b5f81519050919050565b7f4e487b71000000000000000000000000000000000000000000000000000000005f52602260045260245ffd5b5f60028204905060018216806200033257607f821691505b602082108103620003485762000347620002ed565b5b50919050565b5f819050815f5260205f209050919050565b5f6020601f8301049050919050565b5f82821b905092915050565b5f60088302620003ac7fffffffffffffffffffffffffffffffffffffffffffffffffffffffffffffffff826200036f565b620003b886836200036f565b95508019841693508086168417925050509392505050565b5f819050919050565b5f620003f9620003f3620003ed8462000247565b620003d0565b62000247565b9050919050565b5f819050919050565b6200041483620003d9565b6200042c620004238262000400565b8484546200037b565b825550505050565b5f90565b6200044262000434565b6200044f81848462000409565b505050565b5b8181101562000476576200046a5f8262000438565b60018101905062000455565b5050565b601f821115620004c5576200048f816200034e565b6200049a8462000360565b81016020851015620004aa578190505b620004c2620004b98562000360565b83018262000454565b50505b505050565b5f82821c905092915050565b5f620004e75f1984600802620004ca565b1980831691505092915050565b5f620005018383620004d6565b9150826002028217905092915050565b6200051c82620002e3565b67ffffffffffffffff811115620005385762000537620000eb565b5b6200054482546200031a565b620005518282856200047a565b5f60209050601f83116001811462000587575f841562000572578287015190505b6200057e8582620004f4565b865550620005ed565b601f19841662000597866200034e565b5f5b82811015620005c05784890151825560018201915060208501945060208101905062000599565b86831015620005e05784890151620005dc601f891682620004d6565b8355505b6001600288020188555050505b505050505050565b7f4e487b71000000000000000000000000000000000000000000000000000000005f52602160045260245ffd5b6103df80620006305f395ff3fe608060405234801561000f575f80fd5b506004361061004a575f3560e01c8063200d2ed21461004e5780634f7dc3f81461006c5780635fbd2d521461008a5780638da5cb5b146100a8575b5f80fd5b6100566100c6565b6040516100639190610200565b60405180910390f35b6100746100d8565b60405161008191906102a3565b60405180910390f35b610092610164565b60405161009f91906102db565b60405180910390f35b6100b061016a565b6040516100bd9190610333565b60405180910390f35b60035f9054906101000a900460ff1681565b600180546100e590610379565b80601f016020809104026020016040519081016040528092919081815260200182805461011190610379565b801561015c5780601f106101335761010080835404028352916020019161015c565b820191905f5260205f20905b81548152906001019060200180831161013f57829003601f168201915b505050505081565b60025481565b5f8054906101000a900473ffffffffffffffffffffffffffffffffffffffff1681565b7f4e487b71000000000000000000000000000000000000000000000000000000005f52602160045260245ffd5b600381106101cb576101ca61018d565b5b50565b5f8190506101db826101ba565b919050565b5f6101ea826101ce565b9050919050565b6101fa816101e0565b82525050565b5f6020820190506102135f8301846101f1565b92915050565b5f81519050919050565b5f82825260208201905092915050565b5f5b83811015610250578082015181840152602081019050610235565b5f8484015250505050565b5f601f19601f8301169050919050565b5f61027582610219565b61027f8185610223565b935061028f818560208601610233565b6102988161025b565b840191505092915050565b5f6020820190508181035f8301526102bb818461026b565b905092915050565b5f819050919050565b6102d5816102c3565b82525050565b5f6020820190506102ee5f8301846102cc565b92915050565b5f73ffffffffffffffffffffffffffffffffffffffff82169050919050565b5f61031d826102f4565b9050919050565b61032d81610313565b82525050565b5f6020820190506103465f830184610324565b92915050565b7f4e487b71000000000000000000000000000000000000000000000000000000005f52602260045260245ffd5b5f600282049050600182168061039057607f821691505b6020821081036103a3576103a261034c565b5b5091905056fea2646970667358221220e860c8d52483780627b55707f312a214e07607c62b92709271c1eb6fd64c7b9364736f6c63430008150033",
  "immutableReferences": {},
  "source": "// SPDX-License-Identifier: MIT\r\npragma solidity ^0.8.0;\r\n\r\ncontract Degree {\r\n    address public owner;\r\n    string public degreeName;\r\n    uint256 public dateOfIssuance;\r\n\r\n    enum CredentialStatus {\r\n        Active,\r\n        Expired,\r\n        Revoked\r\n    }\r\n\r\n    CredentialStatus public status;\r\n\r\n    constructor(string memory _degreeName, uint256 _dateOfIssuance) {\r\n        owner = msg.sender;\r\n        degreeName = _degreeName;\r\n        dateOfIssuance = _dateOfIssuance;\r\n        status = CredentialStatus.Active;\r\n    }\r\n}\r\n",
  "sourcePath": "C:\\Users\\Dragos\\Facultate_no-Onedrive\\UniGit\\UBB-CS\\Year3\\Sem2\\Blockchain Smart Contracts\\Project\\contracts\\Degree.sol",
  "compiler": {
    "name": "solc",
    "version": "0.8.21+commit.d9974bed.Emscripten.clang"
  },
  "schemaVersion": "3.4.16",
  "updatedAt": "2024-05-17T07:30:00.410Z",
  "devdoc": {
    "kind": "dev",
    "methods": {},
    "version": 1
  },
  "userdoc": {
    "kind": "user",
    "methods": {},
    "version": 1
  }
}