{
  "contractName": "Person",
  "abi": [
    {
      "inputs": [
        {
          "internalType": "string",
          "name": "_name",
          "type": "string"
        }
      ],
      "stateMutability": "nonpayable",
      "type": "constructor"
    },
    {
      "anonymous": false,
      "inputs": [
        {
          "indexed": true,
          "internalType": "address",
          "name": "credential",
          "type": "address"
        }
      ],
      "name": "AcademicCredentialReceived",
      "type": "event"
    },
    {
      "inputs": [
        {
          "internalType": "uint256",
          "name": "",
          "type": "uint256"
        }
      ],
      "name": "academicCredentials",
      "outputs": [
        {
          "internalType": "contract AcademicCredential",
          "name": "",
          "type": "address"
        }
      ],
      "stateMutability": "view",
      "type": "function"
    },
    {
      "inputs": [],
      "name": "name",
      "outputs": [
        {
          "internalType": "string",
          "name": "",
          "type": "string"
        }
      ],
      "stateMutability": "view",
      "type": "function"
    },
    {
      "inputs": [],
      "name": "owner",
      "outputs": [
        {
          "internalType": "address",
          "name": "",
          "type": "address"
        }
      ],
      "stateMutability": "view",
      "type": "function"
    },
    {
      "inputs": [
        {
          "internalType": "address",
          "name": "_credential",
          "type": "address"
        }
      ],
      "name": "receiveAcademicCredential",
      "outputs": [],
      "stateMutability": "nonpayable",
      "type": "function"
    },
    {
      "inputs": [],
      "name": "getAcademicCredentials",
      "outputs": [
        {
          "internalType": "contract AcademicCredential[]",
          "name": "",
          "type": "address[]"
        }
      ],
      "stateMutability": "view",
      "type": "function"
    }
  ],
  "bytecode": "0x608060405234801562000010575f80fd5b5060405162000de638038062000de6833981810160405281019062000036919062000213565b335f806101000a81548173ffffffffffffffffffffffffffffffffffffffff021916908373ffffffffffffffffffffffffffffffffffffffff160217905550806001908162000086919062000499565b50506200057d565b5f604051905090565b5f80fd5b5f80fd5b5f80fd5b5f80fd5b5f601f19601f8301169050919050565b7f4e487b71000000000000000000000000000000000000000000000000000000005f52604160045260245ffd5b620000ef82620000a7565b810181811067ffffffffffffffff82111715620001115762000110620000b7565b5b80604052505050565b5f620001256200008e565b9050620001338282620000e4565b919050565b5f67ffffffffffffffff821115620001555762000154620000b7565b5b6200016082620000a7565b9050602081019050919050565b5f5b838110156200018c5780820151818401526020810190506200016f565b5f8484015250505050565b5f620001ad620001a78462000138565b6200011a565b905082815260208101848484011115620001cc57620001cb620000a3565b5b620001d98482856200016d565b509392505050565b5f82601f830112620001f857620001f76200009f565b5b81516200020a84826020860162000197565b91505092915050565b5f602082840312156200022b576200022a62000097565b5b5f82015167ffffffffffffffff8111156200024b576200024a6200009b565b5b6200025984828501620001e1565b91505092915050565b5f81519050919050565b7f4e487b71000000000000000000000000000000000000000000000000000000005f52602260045260245ffd5b5f6002820490506001821680620002b157607f821691505b602082108103620002c757620002c66200026c565b5b50919050565b5f819050815f5260205f209050919050565b5f6020601f8301049050919050565b5f82821b905092915050565b5f600883026200032b7fffffffffffffffffffffffffffffffffffffffffffffffffffffffffffffffff82620002ee565b620003378683620002ee565b95508019841693508086168417925050509392505050565b5f819050919050565b5f819050919050565b5f620003816200037b62000375846200034f565b62000358565b6200034f565b9050919050565b5f819050919050565b6200039c8362000361565b620003b4620003ab8262000388565b848454620002fa565b825550505050565b5f90565b620003ca620003bc565b620003d781848462000391565b505050565b5b81811015620003fe57620003f25f82620003c0565b600181019050620003dd565b5050565b601f8211156200044d576200041781620002cd565b6200042284620002df565b8101602085101562000432578190505b6200044a6200044185620002df565b830182620003dc565b50505b505050565b5f82821c905092915050565b5f6200046f5f198460080262000452565b1980831691505092915050565b5f6200048983836200045e565b9150826002028217905092915050565b620004a48262000262565b67ffffffffffffffff811115620004c057620004bf620000b7565b5b620004cc825462000299565b620004d982828562000402565b5f60209050601f8311600181146200050f575f8415620004fa578287015190505b6200050685826200047c565b86555062000575565b601f1984166200051f86620002cd565b5f5b82811015620005485784890151825560018201915060208501945060208101905062000521565b8683101562000568578489015162000564601f8916826200045e565b8355505b6001600288020188555050505b505050505050565b61085b806200058b5f395ff3fe608060405234801561000f575f80fd5b5060043610610055575f3560e01c806306fdde03146100595780635e3869d2146100775780638da5cb5b146100a7578063c5b12cce146100c5578063d9812aec146100e3575b5f80fd5b6100616100ff565b60405161006e9190610460565b60405180910390f35b610091600480360381019061008c91906104b7565b61018b565b60405161009e919061055c565b60405180910390f35b6100af6101c6565b6040516100bc9190610595565b60405180910390f35b6100cd6101e9565b6040516100da9190610665565b60405180910390f35b6100fd60048036038101906100f891906106af565b610274565b005b6001805461010c90610707565b80601f016020809104026020016040519081016040528092919081815260200182805461013890610707565b80156101835780601f1061015a57610100808354040283529160200191610183565b820191905f5260205f20905b81548152906001019060200180831161016657829003601f168201915b505050505081565b6002818154811061019a575f80fd5b905f5260205f20015f915054906101000a900473ffffffffffffffffffffffffffffffffffffffff1681565b5f8054906101000a900473ffffffffffffffffffffffffffffffffffffffff1681565b6060600280548060200260200160405190810160405280929190818152602001828054801561026a57602002820191905f5260205f20905b815f9054906101000a900473ffffffffffffffffffffffffffffffffffffffff1673ffffffffffffffffffffffffffffffffffffffff1681526020019060010190808311610221575b5050505050905090565b5f8190508073ffffffffffffffffffffffffffffffffffffffff16630f73927a306040518263ffffffff1660e01b81526004016102b19190610595565b602060405180830381865afa1580156102cc573d5f803e3d5ffd5b505050506040513d601f19601f820116820180604052508101906102f0919061076c565b61032f576040517f08c379a000000000000000000000000000000000000000000000000000000000815260040161032690610807565b60405180910390fd5b600281908060018154018082558091505060019003905f5260205f20015f9091909190916101000a81548173ffffffffffffffffffffffffffffffffffffffff021916908373ffffffffffffffffffffffffffffffffffffffff1602179055508173ffffffffffffffffffffffffffffffffffffffff167ffda4ccc9b2cd4432cf4403d2a9fb7e3931a9cc67607221507444d4fbc8beba7060405160405180910390a25050565b5f81519050919050565b5f82825260208201905092915050565b5f5b8381101561040d5780820151818401526020810190506103f2565b5f8484015250505050565b5f601f19601f8301169050919050565b5f610432826103d6565b61043c81856103e0565b935061044c8185602086016103f0565b61045581610418565b840191505092915050565b5f6020820190508181035f8301526104788184610428565b905092915050565b5f80fd5b5f819050919050565b61049681610484565b81146104a0575f80fd5b50565b5f813590506104b18161048d565b92915050565b5f602082840312156104cc576104cb610480565b5b5f6104d9848285016104a3565b91505092915050565b5f73ffffffffffffffffffffffffffffffffffffffff82169050919050565b5f819050919050565b5f61052461051f61051a846104e2565b610501565b6104e2565b9050919050565b5f6105358261050a565b9050919050565b5f6105468261052b565b9050919050565b6105568161053c565b82525050565b5f60208201905061056f5f83018461054d565b92915050565b5f61057f826104e2565b9050919050565b61058f81610575565b82525050565b5f6020820190506105a85f830184610586565b92915050565b5f81519050919050565b5f82825260208201905092915050565b5f819050602082019050919050565b6105e08161053c565b82525050565b5f6105f183836105d7565b60208301905092915050565b5f602082019050919050565b5f610613826105ae565b61061d81856105b8565b9350610628836105c8565b805f5b8381101561065857815161063f88826105e6565b975061064a836105fd565b92505060018101905061062b565b5085935050505092915050565b5f6020820190508181035f83015261067d8184610609565b905092915050565b61068e81610575565b8114610698575f80fd5b50565b5f813590506106a981610685565b92915050565b5f602082840312156106c4576106c3610480565b5b5f6106d18482850161069b565b91505092915050565b7f4e487b71000000000000000000000000000000000000000000000000000000005f52602260045260245ffd5b5f600282049050600182168061071e57607f821691505b602082108103610731576107306106da565b5b50919050565b5f8115159050919050565b61074b81610737565b8114610755575f80fd5b50565b5f8151905061076681610742565b92915050565b5f6020828403121561078157610780610480565b5b5f61078e84828501610758565b91505092915050565b7f506572736f6e206973206e6f7420617574686f72697a656420746f20726563655f8201527f69766520746869732063726564656e7469616c00000000000000000000000000602082015250565b5f6107f16033836103e0565b91506107fc82610797565b604082019050919050565b5f6020820190508181035f83015261081e816107e5565b905091905056fea2646970667358221220032c88dc6bd8ffff13088f0332d6537f37c576add821ce666170c9207054909a64736f6c63430008150033",
  "immutableReferences": {},
  "source": "// SPDX-License-Identifier: MIT\r\npragma solidity ^0.8.0;\r\n\r\nimport \"./AcademicCredential.sol\";\r\n\r\ncontract Person {\r\n    address public owner;\r\n    string public name;\r\n    AcademicCredential[] public academicCredentials;\r\n\r\n    event AcademicCredentialReceived(address indexed credential);\r\n\r\n    constructor(string memory _name) {\r\n        owner = msg.sender;\r\n        name = _name;\r\n    }\r\n\r\n    function receiveAcademicCredential(address _credential) external {\r\n        AcademicCredential credentialContract = AcademicCredential(_credential);\r\n        require(\r\n            credentialContract.isPerson(address(this)),\r\n            \"Person is not authorized to receive this credential\"\r\n        );\r\n        academicCredentials.push(credentialContract);\r\n        emit AcademicCredentialReceived(_credential);\r\n    }\r\n\r\n    function getAcademicCredentials()\r\n        external\r\n        view\r\n        returns (AcademicCredential[] memory)\r\n    {\r\n        return academicCredentials;\r\n    }\r\n}\r\n",
  "sourcePath": "C:\\Users\\Dragos\\Facultate_no-Onedrive\\UniGit\\UBB-CS\\Year3\\Sem2\\Blockchain Smart Contracts\\Project\\contracts\\Person.sol",
  "compiler": {
    "name": "solc",
    "version": "0.8.21+commit.d9974bed.Emscripten.clang"
  },
  "schemaVersion": "3.4.16",
  "updatedAt": "2024-05-17T07:30:00.422Z",
  "devdoc": {
    "kind": "dev",
    "methods": {},
    "version": 1
  },
  "userdoc": {
    "kind": "user",
    "methods": {},
    "version": 1
  }
}