{
  "contractName": "University",
  "abi": [
    {
      "inputs": [
        {
          "internalType": "string",
          "name": "_name",
          "type": "string"
        }
      ],
      "stateMutability": "nonpayable",
      "type": "constructor"
    },
    {
      "anonymous": false,
      "inputs": [
        {
          "indexed": true,
          "internalType": "address",
          "name": "person",
          "type": "address"
        },
        {
          "indexed": true,
          "internalType": "address",
          "name": "credential",
          "type": "address"
        }
      ],
      "name": "AcademicCredentialIssued",
      "type": "event"
    },
    {
      "inputs": [],
      "name": "name",
      "outputs": [
        {
          "internalType": "string",
          "name": "",
          "type": "string"
        }
      ],
      "stateMutability": "view",
      "type": "function"
    },
    {
      "inputs": [],
      "name": "owner",
      "outputs": [
        {
          "internalType": "address",
          "name": "",
          "type": "address"
        }
      ],
      "stateMutability": "view",
      "type": "function"
    },
    {
      "inputs": [
        {
          "internalType": "address",
          "name": "_person",
          "type": "address"
        },
        {
          "internalType": "string",
          "name": "_degreeName",
          "type": "string"
        },
        {
          "internalType": "uint256",
          "name": "_dateOfIssuance",
          "type": "uint256"
        }
      ],
      "name": "issueAcademicCredential",
      "outputs": [
        {
          "internalType": "address",
          "name": "",
          "type": "address"
        }
      ],
      "stateMutability": "nonpayable",
      "type": "function"
    }
  ],
  "bytecode": "0x608060405234801562000010575f80fd5b506040516200205638038062002056833981810160405281019062000036919062000213565b335f806101000a81548173ffffffffffffffffffffffffffffffffffffffff021916908373ffffffffffffffffffffffffffffffffffffffff160217905550806001908162000086919062000499565b50506200057d565b5f604051905090565b5f80fd5b5f80fd5b5f80fd5b5f80fd5b5f601f19601f8301169050919050565b7f4e487b71000000000000000000000000000000000000000000000000000000005f52604160045260245ffd5b620000ef82620000a7565b810181811067ffffffffffffffff82111715620001115762000110620000b7565b5b80604052505050565b5f620001256200008e565b9050620001338282620000e4565b919050565b5f67ffffffffffffffff821115620001555762000154620000b7565b5b6200016082620000a7565b9050602081019050919050565b5f5b838110156200018c5780820151818401526020810190506200016f565b5f8484015250505050565b5f620001ad620001a78462000138565b6200011a565b905082815260208101848484011115620001cc57620001cb620000a3565b5b620001d98482856200016d565b509392505050565b5f82601f830112620001f857620001f76200009f565b5b81516200020a84826020860162000197565b91505092915050565b5f602082840312156200022b576200022a62000097565b5b5f82015167ffffffffffffffff8111156200024b576200024a6200009b565b5b6200025984828501620001e1565b91505092915050565b5f81519050919050565b7f4e487b71000000000000000000000000000000000000000000000000000000005f52602260045260245ffd5b5f6002820490506001821680620002b157607f821691505b602082108103620002c757620002c66200026c565b5b50919050565b5f819050815f5260205f209050919050565b5f6020601f8301049050919050565b5f82821b905092915050565b5f600883026200032b7fffffffffffffffffffffffffffffffffffffffffffffffffffffffffffffffff82620002ee565b620003378683620002ee565b95508019841693508086168417925050509392505050565b5f819050919050565b5f819050919050565b5f620003816200037b62000375846200034f565b62000358565b6200034f565b9050919050565b5f819050919050565b6200039c8362000361565b620003b4620003ab8262000388565b848454620002fa565b825550505050565b5f90565b620003ca620003bc565b620003d781848462000391565b505050565b5b81811015620003fe57620003f25f82620003c0565b600181019050620003dd565b5050565b601f8211156200044d576200041781620002cd565b6200042284620002df565b8101602085101562000432578190505b6200044a6200044185620002df565b830182620003dc565b50505b505050565b5f82821c905092915050565b5f6200046f5f198460080262000452565b1980831691505092915050565b5f6200048983836200045e565b9150826002028217905092915050565b620004a48262000262565b67ffffffffffffffff811115620004c057620004bf620000b7565b5b620004cc825462000299565b620004d982828562000402565b5f60209050601f8311600181146200050f575f8415620004fa578287015190505b6200050685826200047c565b86555062000575565b601f1984166200051f86620002cd565b5f5b82811015620005485784890151825560018201915060208501945060208101905062000521565b8683101562000568578489015162000564601f8916826200045e565b8355505b6001600288020188555050505b505050505050565b611acb806200058b5f395ff3fe608060405234801562000010575f80fd5b506004361062000044575f3560e01c806306fdde0314620000485780636e5bb398146200006a5780638da5cb5b14620000a0575b5f80fd5b62000052620000c2565b60405162000061919062000535565b60405180910390f35b62000088600480360381019062000082919062000749565b62000156565b604051620000979190620007d2565b60405180910390f35b620000aa62000462565b604051620000b99190620007d2565b60405180910390f35b60018054620000d1906200081a565b80601f0160208091040260200160405190810160405280929190818152602001828054620000ff906200081a565b80156200014e5780601f1062000124576101008083540402835291602001916200014e565b820191905f5260205f20905b8154815290600101906020018083116200013057829003601f168201915b505050505081565b5f805f9054906101000a900473ffffffffffffffffffffffffffffffffffffffff1673ffffffffffffffffffffffffffffffffffffffff163373ffffffffffffffffffffffffffffffffffffffff1614620001e8576040517f08c379a0000000000000000000000000000000000000000000000000000000008152600401620001df90620008c2565b60405180910390fd5b5f604051620001f79062000485565b604051809103905ff08015801562000211573d5f803e3d5ffd5b5090505f8484604051620002259062000493565b62000232929190620008f3565b604051809103905ff0801580156200024c573d5f803e3d5ffd5b5090508173ffffffffffffffffffffffffffffffffffffffff16638e7ce0f0826040518263ffffffff1660e01b81526004016200028a9190620007d2565b5f604051808303815f87803b158015620002a2575f80fd5b505af1158015620002b5573d5f803e3d5ffd5b505050508173ffffffffffffffffffffffffffffffffffffffff166339bdf2a1336040518263ffffffff1660e01b8152600401620002f49190620007d2565b5f604051808303815f87803b1580156200030c575f80fd5b505af11580156200031f573d5f803e3d5ffd5b505050505f8690508273ffffffffffffffffffffffffffffffffffffffff1663bc672a38886040518263ffffffff1660e01b8152600401620003629190620007d2565b5f604051808303815f87803b1580156200037a575f80fd5b505af11580156200038d573d5f803e3d5ffd5b505050508073ffffffffffffffffffffffffffffffffffffffff1663d9812aec846040518263ffffffff1660e01b8152600401620003cc9190620007d2565b5f604051808303815f87803b158015620003e4575f80fd5b505af1158015620003f7573d5f803e3d5ffd5b505050508273ffffffffffffffffffffffffffffffffffffffff168773ffffffffffffffffffffffffffffffffffffffff167fe88d3af80f9186783ca1a857d00dee6146c1d0728e5ef7bddc673c0643c9274760405160405180910390a38293505050509392505050565b5f8054906101000a900473ffffffffffffffffffffffffffffffffffffffff1681565b610761806200092683390190565b610a0f806200108783390190565b5f81519050919050565b5f82825260208201905092915050565b5f5b83811015620004da578082015181840152602081019050620004bd565b5f8484015250505050565b5f601f19601f8301169050919050565b5f6200050182620004a1565b6200050d8185620004ab565b93506200051f818560208601620004bb565b6200052a81620004e5565b840191505092915050565b5f6020820190508181035f8301526200054f8184620004f5565b905092915050565b5f604051905090565b5f80fd5b5f80fd5b5f73ffffffffffffffffffffffffffffffffffffffff82169050919050565b5f620005938262000568565b9050919050565b620005a58162000587565b8114620005b0575f80fd5b50565b5f81359050620005c3816200059a565b92915050565b5f80fd5b5f80fd5b7f4e487b71000000000000000000000000000000000000000000000000000000005f52604160045260245ffd5b6200060982620004e5565b810181811067ffffffffffffffff821117156200062b576200062a620005d1565b5b80604052505050565b5f6200063f62000557565b90506200064d8282620005fe565b919050565b5f67ffffffffffffffff8211156200066f576200066e620005d1565b5b6200067a82620004e5565b9050602081019050919050565b828183375f83830152505050565b5f620006ab620006a58462000652565b62000634565b905082815260208101848484011115620006ca57620006c9620005cd565b5b620006d784828562000687565b509392505050565b5f82601f830112620006f657620006f5620005c9565b5b81356200070884826020860162000695565b91505092915050565b5f819050919050565b620007258162000711565b811462000730575f80fd5b50565b5f8135905062000743816200071a565b92915050565b5f805f6060848603121562000763576200076262000560565b5b5f6200077286828701620005b3565b935050602084013567ffffffffffffffff81111562000796576200079562000564565b5b620007a486828701620006df565b9250506040620007b78682870162000733565b9150509250925092565b620007cc8162000587565b82525050565b5f602082019050620007e75f830184620007c1565b92915050565b7f4e487b71000000000000000000000000000000000000000000000000000000005f52602260045260245ffd5b5f60028204905060018216806200083257607f821691505b602082108103620008485762000847620007ed565b5b50919050565b7f4f6e6c7920746865206f776e65722063616e2063616c6c20746869732066756e5f8201527f6374696f6e000000000000000000000000000000000000000000000000000000602082015250565b5f620008aa602583620004ab565b9150620008b7826200084e565b604082019050919050565b5f6020820190508181035f830152620008db816200089c565b9050919050565b620008ed8162000711565b82525050565b5f6040820190508181035f8301526200090d8185620004f5565b90506200091e6020830184620008e2565b939250505056fe608060405234801561000f575f80fd5b506107448061001d5f395ff3fe608060405234801561000f575f80fd5b5060043610610060575f3560e01c80630f73927a1461006457806339bdf2a1146100945780638e7ce0f0146100b0578063a1b00dd5146100cc578063b9730cde146100fc578063bc672a381461012c575b5f80fd5b61007e60048036038101906100799190610568565b610148565b60405161008b91906105ad565b60405180910390f35b6100ae60048036038101906100a99190610568565b610165565b005b6100ca60048036038101906100c59190610568565b610288565b005b6100e660048036038101906100e19190610568565b6103ad565b6040516100f391906105ad565b60405180910390f35b61011660048036038101906101119190610568565b6103ca565b60405161012391906105ad565b60405180910390f35b61014660048036038101906101419190610568565b6103e6565b005b6001602052805f5260405f205f915054906101000a900460ff1681565b5f808273ffffffffffffffffffffffffffffffffffffffff1673ffffffffffffffffffffffffffffffffffffffff1681526020019081526020015f205f9054906101000a900460ff16156101ee576040517f08c379a00000000000000000000000000000000000000000000000000000000081526004016101e590610620565b60405180910390fd5b60015f808373ffffffffffffffffffffffffffffffffffffffff1673ffffffffffffffffffffffffffffffffffffffff1681526020019081526020015f205f6101000a81548160ff0219169083151502179055508073ffffffffffffffffffffffffffffffffffffffff167f1bd776fe56dabdcdce7a058540a81f2015efbfd2b70a9a062754353200dc171f60405160405180910390a250565b60025f8273ffffffffffffffffffffffffffffffffffffffff1673ffffffffffffffffffffffffffffffffffffffff1681526020019081526020015f205f9054906101000a900460ff1615610312576040517f08c379a000000000000000000000000000000000000000000000000000000000815260040161030990610688565b60405180910390fd5b600160025f8373ffffffffffffffffffffffffffffffffffffffff1673ffffffffffffffffffffffffffffffffffffffff1681526020019081526020015f205f6101000a81548160ff0219169083151502179055508073ffffffffffffffffffffffffffffffffffffffff167f16bbef95583a79bb31f8641bb7ed4c5d1e45a083f184f338b0cbf5a3be9a497760405160405180910390a250565b6002602052805f5260405f205f915054906101000a900460ff1681565b5f602052805f5260405f205f915054906101000a900460ff1681565b60015f8273ffffffffffffffffffffffffffffffffffffffff1673ffffffffffffffffffffffffffffffffffffffff1681526020019081526020015f205f9054906101000a900460ff1615610470576040517f08c379a0000000000000000000000000000000000000000000000000000000008152600401610467906106f0565b60405180910390fd5b6001805f8373ffffffffffffffffffffffffffffffffffffffff1673ffffffffffffffffffffffffffffffffffffffff1681526020019081526020015f205f6101000a81548160ff0219169083151502179055508073ffffffffffffffffffffffffffffffffffffffff167f92acb04717cd53af51632ef170cd4cb6de847c4e202496a71fbc6d7f2246297560405160405180910390a250565b5f80fd5b5f73ffffffffffffffffffffffffffffffffffffffff82169050919050565b5f6105378261050e565b9050919050565b6105478161052d565b8114610551575f80fd5b50565b5f813590506105628161053e565b92915050565b5f6020828403121561057d5761057c61050a565b5b5f61058a84828501610554565b91505092915050565b5f8115159050919050565b6105a781610593565b82525050565b5f6020820190506105c05f83018461059e565b92915050565b5f82825260208201905092915050565b7f556e697665727369747920616c726561647920726567697374657265640000005f82015250565b5f61060a601d836105c6565b9150610615826105d6565b602082019050919050565b5f6020820190508181035f830152610637816105fe565b9050919050565b7f44656772656520616c72656164792072656769737465726564000000000000005f82015250565b5f6106726019836105c6565b915061067d8261063e565b602082019050919050565b5f6020820190508181035f83015261069f81610666565b9050919050565b7f506572736f6e20616c72656164792072656769737465726564000000000000005f82015250565b5f6106da6019836105c6565b91506106e5826106a6565b602082019050919050565b5f6020820190508181035f830152610707816106ce565b905091905056fea26469706673582212203069d8a8df663d762405198604793f999114ec861032a680a7103b76e563f54264736f6c63430008150033608060405234801562000010575f80fd5b5060405162000a0f38038062000a0f83398181016040528101906200003691906200027f565b335f806101000a81548173ffffffffffffffffffffffffffffffffffffffff021916908373ffffffffffffffffffffffffffffffffffffffff160217905550816001908162000086919062000511565b50806002819055505f60035f6101000a81548160ff02191690836002811115620000b557620000b4620005f5565b5b0217905550505062000622565b5f604051905090565b5f80fd5b5f80fd5b5f80fd5b5f80fd5b5f601f19601f8301169050919050565b7f4e487b71000000000000000000000000000000000000000000000000000000005f52604160045260245ffd5b6200012382620000db565b810181811067ffffffffffffffff82111715620001455762000144620000eb565b5b80604052505050565b5f62000159620000c2565b905062000167828262000118565b919050565b5f67ffffffffffffffff821115620001895762000188620000eb565b5b6200019482620000db565b9050602081019050919050565b5f5b83811015620001c0578082015181840152602081019050620001a3565b5f8484015250505050565b5f620001e1620001db846200016c565b6200014e565b9050828152602081018484840111156200020057620001ff620000d7565b5b6200020d848285620001a1565b509392505050565b5f82601f8301126200022c576200022b620000d3565b5b81516200023e848260208601620001cb565b91505092915050565b5f819050919050565b6200025b8162000247565b811462000266575f80fd5b50565b5f81519050620002798162000250565b92915050565b5f8060408385031215620002985762000297620000cb565b5b5f83015167ffffffffffffffff811115620002b857620002b7620000cf565b5b620002c68582860162000215565b9250506020620002d98582860162000269565b9150509250929050565b5f81519050919050565b7f4e487b71000000000000000000000000000000000000000000000000000000005f52602260045260245ffd5b5f60028204905060018216806200033257607f821691505b602082108103620003485762000347620002ed565b5b50919050565b5f819050815f5260205f209050919050565b5f6020601f8301049050919050565b5f82821b905092915050565b5f60088302620003ac7fffffffffffffffffffffffffffffffffffffffffffffffffffffffffffffffff826200036f565b620003b886836200036f565b95508019841693508086168417925050509392505050565b5f819050919050565b5f620003f9620003f3620003ed8462000247565b620003d0565b62000247565b9050919050565b5f819050919050565b6200041483620003d9565b6200042c620004238262000400565b8484546200037b565b825550505050565b5f90565b6200044262000434565b6200044f81848462000409565b505050565b5b8181101562000476576200046a5f8262000438565b60018101905062000455565b5050565b601f821115620004c5576200048f816200034e565b6200049a8462000360565b81016020851015620004aa578190505b620004c2620004b98562000360565b83018262000454565b50505b505050565b5f82821c905092915050565b5f620004e75f1984600802620004ca565b1980831691505092915050565b5f620005018383620004d6565b9150826002028217905092915050565b6200051c82620002e3565b67ffffffffffffffff811115620005385762000537620000eb565b5b6200054482546200031a565b620005518282856200047a565b5f60209050601f83116001811462000587575f841562000572578287015190505b6200057e8582620004f4565b865550620005ed565b601f19841662000597866200034e565b5f5b82811015620005c05784890151825560018201915060208501945060208101905062000599565b86831015620005e05784890151620005dc601f891682620004d6565b8355505b6001600288020188555050505b505050505050565b7f4e487b71000000000000000000000000000000000000000000000000000000005f52602160045260245ffd5b6103df80620006305f395ff3fe608060405234801561000f575f80fd5b506004361061004a575f3560e01c8063200d2ed21461004e5780634f7dc3f81461006c5780635fbd2d521461008a5780638da5cb5b146100a8575b5f80fd5b6100566100c6565b6040516100639190610200565b60405180910390f35b6100746100d8565b60405161008191906102a3565b60405180910390f35b610092610164565b60405161009f91906102db565b60405180910390f35b6100b061016a565b6040516100bd9190610333565b60405180910390f35b60035f9054906101000a900460ff1681565b600180546100e590610379565b80601f016020809104026020016040519081016040528092919081815260200182805461011190610379565b801561015c5780601f106101335761010080835404028352916020019161015c565b820191905f5260205f20905b81548152906001019060200180831161013f57829003601f168201915b505050505081565b60025481565b5f8054906101000a900473ffffffffffffffffffffffffffffffffffffffff1681565b7f4e487b71000000000000000000000000000000000000000000000000000000005f52602160045260245ffd5b600381106101cb576101ca61018d565b5b50565b5f8190506101db826101ba565b919050565b5f6101ea826101ce565b9050919050565b6101fa816101e0565b82525050565b5f6020820190506102135f8301846101f1565b92915050565b5f81519050919050565b5f82825260208201905092915050565b5f5b83811015610250578082015181840152602081019050610235565b5f8484015250505050565b5f601f19601f8301169050919050565b5f61027582610219565b61027f8185610223565b935061028f818560208601610233565b6102988161025b565b840191505092915050565b5f6020820190508181035f8301526102bb818461026b565b905092915050565b5f819050919050565b6102d5816102c3565b82525050565b5f6020820190506102ee5f8301846102cc565b92915050565b5f73ffffffffffffffffffffffffffffffffffffffff82169050919050565b5f61031d826102f4565b9050919050565b61032d81610313565b82525050565b5f6020820190506103465f830184610324565b92915050565b7f4e487b71000000000000000000000000000000000000000000000000000000005f52602260045260245ffd5b5f600282049050600182168061039057607f821691505b6020821081036103a3576103a261034c565b5b5091905056fea2646970667358221220e860c8d52483780627b55707f312a214e07607c62b92709271c1eb6fd64c7b9364736f6c63430008150033a26469706673582212201ba619c39fe43b42ab69b3236a2dafb4119a1e6c34161a1263f562702daa059564736f6c63430008150033",
  "immutableReferences": {},
  "source": "// SPDX-License-Identifier: MIT\r\npragma solidity ^0.8.0;\r\n\r\nimport \"./Degree.sol\";\r\nimport \"./AcademicCredential.sol\";\r\nimport \"./Person.sol\";\r\n\r\ncontract University {\r\n    address public owner;\r\n    string public name;\r\n\r\n    event AcademicCredentialIssued(\r\n        address indexed person,\r\n        address indexed credential\r\n    );\r\n\r\n    modifier onlyOwner() {\r\n        require(msg.sender == owner, \"Only the owner can call this function\");\r\n        _;\r\n    }\r\n\r\n    constructor(string memory _name) {\r\n        owner = msg.sender;\r\n        name = _name;\r\n    }\r\n\r\n    function issueAcademicCredential(\r\n        address _person,\r\n        string memory _degreeName,\r\n        uint256 _dateOfIssuance\r\n    ) public onlyOwner returns (address) {\r\n        AcademicCredential academicCredential = new AcademicCredential();\r\n        Degree degree = new Degree(_degreeName, _dateOfIssuance);\r\n        academicCredential.addDegree(address(degree));\r\n        academicCredential.addUniversity(msg.sender);\r\n\r\n        Person personContract = Person(_person);\r\n        academicCredential.addPerson(_person);\r\n        personContract.receiveAcademicCredential(address(academicCredential));\r\n\r\n        emit AcademicCredentialIssued(_person, address(academicCredential));\r\n\r\n        return address(academicCredential);\r\n    }\r\n}\r\n",
  "sourcePath": "C:\\Users\\Dragos\\Facultate_no-Onedrive\\UniGit\\UBB-CS\\Year3\\Sem2\\Blockchain Smart Contracts\\Project\\contracts\\University.sol",
  "compiler": {
    "name": "solc",
    "version": "0.8.21+commit.d9974bed.Emscripten.clang"
  },
  "schemaVersion": "3.4.16",
  "updatedAt": "2024-05-17T07:30:00.437Z",
  "devdoc": {
    "kind": "dev",
    "methods": {},
    "version": 1
  },
  "userdoc": {
    "kind": "user",
    "methods": {},
    "version": 1
  }
}